:100000000C945D000C947A000C947A000C947A00A5
:100010000C947A000C947A000C947A000C94C4032B
:100020000C947A000C947A000C947A000C947A0068
:100030000C947A000C947A000C947A000C947A0058
:100040000C9420040C947A000C947A000C947A009E
:100050000C947A000C947A000C947A000C947A0038
:100060000C947A000C947A00000000080002010051
:100070000003040700000000000000000000000072
:10008000240027002A0001020408102040800102F9
:1000900004081020010204081020000000002500C0
:1000A00028002B00040404040404040402020202D5
:1000B0000202030303030303020011241FBECFEF58
:1000C000D8E0DEBFCDBF11E0A0E0B1E0E2EAFDE0A4
:1000D00002C005900D92AA33B107D9F721E0AAE337
:1000E000B1E001C01D92A835B207E1F70E946A0491
:1000F0000C94CF060C9400003F924F925F926F9247
:100100007F928F929F92AF92BF92CF92DF92EF92A7
:10011000FF920F931F93CF93DF9300D000D0CDB702
:10012000DEB78C0149835A836B837C838091000105
:10013000883021F08F3F09F043C204C0E8EBF0E0C3
:10014000349076C088E080930001E8EBF0E0E49121
:10015000EF3F09F435C2E13011F1E23009F443C058
:10016000E11165C014BC15BC84B5826084BD85B541
:10017000816085BDECEAF0E0E491F0E0EE0FFF1F56
:10018000E656FF4F8591949190934B0180934A01DD
:10019000EEE8F0E0E491E0934901312C4BC010927D
:1001A000800010928100809181008860809381009E
:1001B00080918100816080938100ECEAF0E0E4911D
:1001C000F0E0EE0FFF1FE656FF4F8591949190935C
:1001D000480180934701EEE8F0E0E491E0934601A6
:1001E0003324339427C01092B0001092B100809154
:1001F000B00082608093B0008091B10081608093F4
:10020000B100ECEAF0E0E491F0E0EE0FFF1FE656FB
:10021000FF4F859194919093450180934401EEE8BE
:10022000F0E0E491E093430172E0372E03C03E2EEC
:1002300037FCC6C1EEE8F0E02491ECEAF0E08491EE
:100240008823A1F090E0880F991FFC01E458FF4F2C
:10025000A591B491FC01E656FF4F859194918FB71B
:10026000F8949C91E92FE22BEC938FBF4801A12CCD
:10027000B12C832D8D7F09F0B7C060E072E18AE771
:1002800090E0A50194010E94820629013A016901CA
:100290007A0121E0C21AD108E108F1088FEFC816EF
:1002A000D104E104F10409F008F44CC060E472E404
:1002B0008FE090E0A50194010E94820669017A0115
:1002C00091E0C91AD108E108F108A2E03A1220C071
:1002D000BFEFCB16D104E104F10409F008F46EC1BC
:1002E00060E970ED83E090E0A50194010E94820630
:1002F00069017A01E1E0CE1AD108E108F108FFEFC7
:10030000CF16D104E104F10409F0C0F583E065C023
:100310002FEFC216D104E104F104B1F0A8F068E4B3
:1003200078EE81E090E0A50194010E9482066901C7
:100330007A0181E0C81AD108E108F108332009F4F4
:100340001BC111C181E001C082E0332091F045C0A2
:10035000D301C2012AE0B595A795979587952A956F
:10036000D1F76C017D01E1E0CE1AD108E108F10876
:1003700085E095B5987F892B85BD72C068E478EEDD
:1003800081E090E0A50194010E94820669017A0152
:10039000B1E0CB1AD108E108F108EFEFCE16D10495
:1003A000E104F10409F008F4AFC064E274EF80E006
:1003B00090E0A50194010E94820669017A0191E012
:1003C000C91AD108E108F108AFEFCA16D104E10457
:1003D000F10411F008F09AC085E09091B100987F87
:1003E000892B8093B1003CC060E072E18AE790E025
:1003F000A50194010E94820669017A01F1E0CF1AF9
:10040000D108E108F108C114D10421E0E206F104A9
:1004100088F068E478EE81E090E0A50194010E9404
:10042000820669017A0181E0C81AD108E108F10861
:1004300093E001C091E0A1E03A1212C080918100E6
:10044000887F892B8093810089819A81AB81BC81CF
:10045000892B8A2B8B2B61F42FEF3FEFA90132C040
:1004600089819A81AB81BC81892B8A2B8B2B81F06E
:10047000D801AA0FBB1F29813A814B815C810E9460
:10048000A10628EE33E040E050E00E94600603C081
:100490002FEF3FEFA90191E03916A1F0A2E03A1643
:1004A00019F131108DC0C7BC209354013093550110
:1004B000409356015093570180916E008260809363
:1004C0006E007EC0D0928900C092880020935001B7
:1004D00030935101409352015093530180916F002A
:1004E000826080936F006CC0C092B30020934C0177
:1004F00030934D0140934E0150934F018091700015
:100500008260809370005CC084E067CF62E17AE72C
:1005100080E090E0A50194010E94820669017A01C1
:10052000F1E0CF1AD108E108F1082FEFC216D1048B
:10053000E104F104B1F0A8F0D301C2014AE0B5959D
:10054000A795979587954A95D1F76C017D01E1E0D4
:10055000CE1AD108E108F108332009F409CF87E069
:100560003CCF86E0F2CE8FEFC816D104E104F1044F
:1005700009F060F684E0E9CEBFEFCB16D104E104C8
:10058000F104D1F0C8F062E17AE780E090E0A501E3
:1005900094010E94820669017A0191E0C91AD1088A
:1005A000E108F108AFEFCA16D104E104F10411F03B
:1005B00008F0CECE84E0DDCE83E0DBCE82E00DCF4E
:1005C0000F900F900F900F90DF91CF911F910F918F
:1005D000FF90EF90DF90CF90BF90AF909F908F9063
:1005E0007F906F905F904F903F90089590910001A1
:1005F000981324C0E8EBF0E0E4919FEF90930001A2
:10060000E130B9F098F0E230C9F4909170009D7F2C
:100610009093700091E09093B0009091B100987F1A
:1006200094609093B1001092B30008C010926E00D5
:1006300005C090916F009D7F90936F0090E0FC014A
:10064000E859FF4F2491FC01EA57FF4F3491FC0118
:10065000EC55FF4FE491EE23B9F1222339F1233019
:1006600091F038F42130A9F0223001F584B58F7D66
:1006700012C0273091F02830A1F02430B9F48091D5
:1006800080008F7D03C0809180008F7780938000F1
:100690000DC084B58F7784BD09C08091B0008F777D
:1006A00003C08091B0008F7D8093B000F0E0EE0F2A
:1006B000FF1FE656FF4FA591B4918FB7F894EC91C8
:1006C00030953E233C938FBF08953FB7F8948091B7
:1006D0003F0190914001A0914101B091420126B5A6
:1006E000A89B05C02F3F19F00196A11DB11D3FBF6A
:1006F000BA2FA92F982F8827820F911DA11DB11DF8
:10070000BC01CD0142E0660F771F881F991F4A95F3
:10071000D1F708958F929F92AF92BF92CF92DF92BE
:10072000EF92FF926B017C010E9465034B015C011B
:10073000C114D104E104F104F1F00E946503DC016D
:10074000CB0188199909AA09BB09883E9340A105E4
:10075000B10570F321E0C21AD108E108F10888EE72
:10076000880E83E0981EA11CB11CC114D104E104C1
:10077000F10419F7DDCFFF90EF90DF90CF90BF909D
:10078000AF909F908F9008951F920F920FB60F9287
:1007900011242F933F934F935F936F937F938F9386
:1007A0009F93AF93BF93EF93FF9380914C019091F0
:1007B0004D01A0914E01B0914F01892B8A2B8B2BBB
:1007C00051F180914301E0914401F0914501908104
:1007D0008927808380914C0190914D01A0914E0119
:1007E000B0914F01181619061A061B06C4F4809121
:1007F0004C0190914D01A0914E01B0914F01019794
:10080000A109B10980934C0190934D01A0934E0131
:10081000B0934F0104C0809100010E94F602FF9145
:10082000EF91BF91AF919F918F917F916F915F9168
:100830004F913F912F910F900FBE0F901F901895E1
:100840001F920F920FB60F9211242F933F938F9305
:100850009F93AF93BF9380913B0190913C01A091F6
:100860003D01B0913E0130913A0123E0230F2D3735
:1008700020F40196A11DB11D05C026E8230F0296A4
:10088000A11DB11D20933A0180933B0190933C013F
:10089000A0933D01B0933E0180913F0190914001B2
:1008A000A0914101B09142010196A11DB11D80931B
:1008B0003F0190934001A0934101B0934201BF9149
:1008C000AF919F918F913F912F910F900FBE0F90FD
:1008D0001F901895789484B5826084BD84B581603A
:1008E00084BD85B5826085BD85B5816085BD8091FB
:1008F0006E00816080936E00109281008091810073
:10090000826080938100809181008160809381006A
:10091000809180008160809380008091B10084602C
:100920008093B1008091B00081608093B00080918D
:100930007A00846080937A0080917A00826080934C
:100940007A0080917A00816080937A0080917A00A9
:10095000806880937A001092C10001E011E0CDE13F
:10096000D1E028EEA22E23E0B22E69917991C50143
:100970000E944C066B01770FEE08FF08B701A60135
:10098000F801819191918F010E947C00C701B6010D
:100990000E9453052AE939E949E95FE30E94B70556
:1009A0000E941B05072E000C880B990B0E948A03DE
:1009B00088E00E94F602F1E0C933DF07B1F688EE65
:1009C000E82E83E0F82E90E0C92E90E0D92E01E0C9
:1009D00011E0CDE1D1E069917991C7010E944C0607
:1009E0004B01770FAA08BB08B501A401F80181915A
:1009F00091918F010E947C00C501B4010E945305B2
:100A00002AE939E949E95FE30E94B7050E941B051D
:100A1000072E000C880B990B0E948A0388E00E9425
:100A2000F602F1E0C733DF07B1F6C114D10479F261
:100A30000E940000CCCF0E9422056894B1110C9452
:100A4000B10508950E94960588F09F5798F0B92F38
:100A50009927B751B0F0E1F0660F771F881F991FF3
:100A60001AF0BA95C9F714C0B13091F00E94B005E0
:100A7000B1E008950C94B005672F782F8827B85FF0
:100A800039F0B93FCCF3869577956795B395D9F74B
:100A90003EF490958095709561957F4F8F4F9F4F55
:100AA0000895E89409C097FB3EF490958095709561
:100AB00061957F4F8F4F9F4F9923A9F0F92F96E9AA
:100AC000BB279395F695879577956795B795F1111F
:100AD000F8CFFAF4BB0F11F460FF1BC06F5F7F4FBC
:100AE0008F4F9F4F16C0882311F096E911C07723CE
:100AF00021F09EE8872F762F05C0662371F096E8D7
:100B0000862F70E060E02AF09A95660F771F881FA5
:100B1000DAF7880F9695879597F9089557FD9058BD
:100B2000440F551F59F05F3F71F04795880F97FBB1
:100B3000991F61F09F3F79F087950895121613066B
:100B40001406551FF2CF4695F1DF08C0161617069A
:100B50001806991FF1CF86957105610508940895CF
:100B6000E894BB2766277727CB0197F908950E9461
:100B7000CA050C943B060E942D0638F00E943406EC
:100B800020F0952311F00C9424060C942A061124CD
:100B90000C94B1050E948E0570F3959FC1F3950FDB
:100BA00050E0551F629FF001729FBB27F00DB11DF1
:100BB000639FAA27F00DB11DAA1F649F6627B00D81
:100BC000A11D661F829F2227B00DA11D621F739F6A
:100BD000B00DA11D621F839FA00D611D221F749F78
:100BE0003327A00D611D231F849F600D211D822FBF
:100BF000762F6A2F11249F5750409AF0F1F08823E6
:100C00004AF0EE0FFF1FBB1F661F771F881F915012
:100C10005040A9F79E3F510580F00C9424060C9497
:100C2000B1055F3FE4F3983ED4F3869577956795D9
:100C3000B795F795E7959F5FC1F7FE2B880F911D3C
:100C40009695879597F9089597F99F6780E870E0E2
:100C500060E008959FEF80EC089500240A94161632
:100C6000170618060906089500240A94121613069A
:100C7000140605060895092E0394000C11F4882328
:100C800052F0BB0F40F4BF2B11F460FF04C06F5F44
:100C90007F4F8F4F9F4F089597FB072E16F40094B8
:100CA00007D077FD09D00E94AC0607FC05D03EF4C2
:100CB000909581959F4F0895709561957F4F089508
:100CC000A1E21A2EAA1BBB1BFD010DC0AA1FBB1F50
:100CD000EE1FFF1FA217B307E407F50720F0A21BC2
:100CE000B30BE40BF50B661F771F881F991F1A942F
:100CF00069F760957095809590959B01AC01BD0159
:100D0000CF010895052E97FB1EF400940E949906CA
:100D100057FD07D00E94600607FC03D04EF40C94E8
:100D2000990650954095309521953F4F4F4F5F4F15
:100D3000089590958095709561957F4F8F4F9F4F47
:100D400008950E94C006A59F900DB49F900DA49F8A
:100D5000800D911D11240895AA1BBB1B51E107C0F2
:100D6000AA1FBB1FA617B70710F0A61BB70B881F3B
:100D7000991F5A95A9F780959095BC01CD010895CA
:100D8000A29FB001B39FC001A39F700D811D1124CC
:100D9000911DB29F700D811D1124911D0895F8942D
:020DA000FFCF83
:100DA200FF0000B801B801B801B8010000B80100A5
:100DB20000D2016E023F0310036E0200000400081D
:100DC20000080008000400040008000800080008E9
:0A0DD20000080008000800020000FD
:107E0000112484B714BE81FFF0D085E080938100F7
:107E100082E08093C00088E18093C10086E0809377
:107E2000C20080E18093C4008EE0C9D0259A86E02C
:107E300020E33CEF91E0309385002093840096BBD3
:107E4000B09BFECF1D9AA8958150A9F7CC24DD24C4
:107E500088248394B5E0AB2EA1E19A2EF3E0BF2EE7
:107E6000A2D0813461F49FD0082FAFD0023811F036
:107E7000013811F484E001C083E08DD089C08234E0
:107E800011F484E103C0853419F485E0A6D080C0E4
:107E9000853579F488D0E82EFF2485D0082F10E0AE
:107EA000102F00270E291F29000F111F8ED06801E7
:107EB0006FC0863521F484E090D080E0DECF843638
:107EC00009F040C070D06FD0082F6DD080E0C81688
:107ED00080E7D80618F4F601B7BEE895C0E0D1E017
:107EE00062D089930C17E1F7F0E0CF16F0E7DF06D8
:107EF00018F0F601B7BEE89568D007B600FCFDCFD4
:107F0000A601A0E0B1E02C9130E011968C91119780
:107F100090E0982F8827822B932B1296FA010C0160
:107F200087BEE89511244E5F5F4FF1E0A038BF0790
:107F300051F7F601A7BEE89507B600FCFDCF97BE46
:107F4000E89526C08437B1F42ED02DD0F82E2BD052
:107F50003CD0F601EF2C8F010F5F1F4F84911BD097
:107F6000EA94F801C1F70894C11CD11CFA94CF0C13
:107F7000D11C0EC0853739F428D08EE10CD085E9AC
:107F80000AD08FE07ACF813511F488E018D01DD067
:107F900080E101D065CF982F8091C00085FFFCCF94
:107FA0009093C60008958091C00087FFFCCF809118
:107FB000C00084FD01C0A8958091C6000895E0E648
:107FC000F0E098E1908380830895EDDF803219F02E
:107FD00088E0F5DFFFCF84E1DECF1F93182FE3DFCA
:107FE0001150E9F7F2DF1F91089580E0E8DFEE27F6
:047FF000FF270994CA
:027FFE00040479
:0400000300007E007B
:00000001FF
